{
  "contractName": "Exchange",
  "abi": [
    {
      "inputs": [
        {
          "internalType": "address",
          "name": "_feeAccount",
          "type": "address"
        },
        {
          "internalType": "uint256",
          "name": "_feePercent",
          "type": "uint256"
        }
      ],
      "payable": false,
      "stateMutability": "nonpayable",
      "type": "constructor"
    },
    {
      "anonymous": false,
      "inputs": [
        {
          "indexed": false,
          "internalType": "uint256",
          "name": "id",
          "type": "uint256"
        },
        {
          "indexed": false,
          "internalType": "address",
          "name": "user",
          "type": "address"
        },
        {
          "indexed": false,
          "internalType": "address",
          "name": "tokenGet",
          "type": "address"
        },
        {
          "indexed": false,
          "internalType": "uint256",
          "name": "amountGet",
          "type": "uint256"
        },
        {
          "indexed": false,
          "internalType": "address",
          "name": "tokenGive",
          "type": "address"
        },
        {
          "indexed": false,
          "internalType": "uint256",
          "name": "amountGive",
          "type": "uint256"
        },
        {
          "indexed": false,
          "internalType": "uint256",
          "name": "timestamp",
          "type": "uint256"
        }
      ],
      "name": "Cancel",
      "type": "event"
    },
    {
      "anonymous": false,
      "inputs": [
        {
          "indexed": false,
          "internalType": "address",
          "name": "token",
          "type": "address"
        },
        {
          "indexed": false,
          "internalType": "address",
          "name": "user",
          "type": "address"
        },
        {
          "indexed": false,
          "internalType": "uint256",
          "name": "amount",
          "type": "uint256"
        },
        {
          "indexed": false,
          "internalType": "uint256",
          "name": "balance",
          "type": "uint256"
        }
      ],
      "name": "Deposit",
      "type": "event"
    },
    {
      "anonymous": false,
      "inputs": [
        {
          "indexed": false,
          "internalType": "uint256",
          "name": "id",
          "type": "uint256"
        },
        {
          "indexed": false,
          "internalType": "address",
          "name": "user",
          "type": "address"
        },
        {
          "indexed": false,
          "internalType": "address",
          "name": "tokenGet",
          "type": "address"
        },
        {
          "indexed": false,
          "internalType": "uint256",
          "name": "amountGet",
          "type": "uint256"
        },
        {
          "indexed": false,
          "internalType": "address",
          "name": "tokenGive",
          "type": "address"
        },
        {
          "indexed": false,
          "internalType": "uint256",
          "name": "amountGive",
          "type": "uint256"
        },
        {
          "indexed": false,
          "internalType": "uint256",
          "name": "timestamp",
          "type": "uint256"
        }
      ],
      "name": "Order",
      "type": "event"
    },
    {
      "anonymous": false,
      "inputs": [
        {
          "indexed": false,
          "internalType": "uint256",
          "name": "id",
          "type": "uint256"
        },
        {
          "indexed": false,
          "internalType": "address",
          "name": "user",
          "type": "address"
        },
        {
          "indexed": false,
          "internalType": "address",
          "name": "tokenGet",
          "type": "address"
        },
        {
          "indexed": false,
          "internalType": "uint256",
          "name": "amountGet",
          "type": "uint256"
        },
        {
          "indexed": false,
          "internalType": "address",
          "name": "tokenGive",
          "type": "address"
        },
        {
          "indexed": false,
          "internalType": "uint256",
          "name": "amountGive",
          "type": "uint256"
        },
        {
          "indexed": false,
          "internalType": "address",
          "name": "userFill",
          "type": "address"
        },
        {
          "indexed": false,
          "internalType": "uint256",
          "name": "timestamp",
          "type": "uint256"
        }
      ],
      "name": "Trade",
      "type": "event"
    },
    {
      "anonymous": false,
      "inputs": [
        {
          "indexed": false,
          "internalType": "address",
          "name": "token",
          "type": "address"
        },
        {
          "indexed": false,
          "internalType": "address",
          "name": "user",
          "type": "address"
        },
        {
          "indexed": false,
          "internalType": "uint256",
          "name": "amount",
          "type": "uint256"
        },
        {
          "indexed": false,
          "internalType": "uint256",
          "name": "balance",
          "type": "uint256"
        }
      ],
      "name": "Withdraw",
      "type": "event"
    },
    {
      "payable": false,
      "stateMutability": "nonpayable",
      "type": "fallback"
    },
    {
      "constant": true,
      "inputs": [],
      "name": "feeAccount",
      "outputs": [
        {
          "internalType": "address",
          "name": "",
          "type": "address"
        }
      ],
      "payable": false,
      "stateMutability": "view",
      "type": "function"
    },
    {
      "constant": true,
      "inputs": [],
      "name": "feePercent",
      "outputs": [
        {
          "internalType": "uint256",
          "name": "",
          "type": "uint256"
        }
      ],
      "payable": false,
      "stateMutability": "view",
      "type": "function"
    },
    {
      "constant": true,
      "inputs": [],
      "name": "orderCount",
      "outputs": [
        {
          "internalType": "uint256",
          "name": "",
          "type": "uint256"
        }
      ],
      "payable": false,
      "stateMutability": "view",
      "type": "function"
    },
    {
      "constant": true,
      "inputs": [
        {
          "internalType": "uint256",
          "name": "",
          "type": "uint256"
        }
      ],
      "name": "orders",
      "outputs": [
        {
          "internalType": "uint256",
          "name": "id",
          "type": "uint256"
        },
        {
          "internalType": "address",
          "name": "user",
          "type": "address"
        },
        {
          "internalType": "address",
          "name": "tokenGet",
          "type": "address"
        },
        {
          "internalType": "uint256",
          "name": "amountGet",
          "type": "uint256"
        },
        {
          "internalType": "address",
          "name": "tokenGive",
          "type": "address"
        },
        {
          "internalType": "uint256",
          "name": "amountGive",
          "type": "uint256"
        },
        {
          "internalType": "uint256",
          "name": "timestamp",
          "type": "uint256"
        }
      ],
      "payable": false,
      "stateMutability": "view",
      "type": "function"
    },
    {
      "constant": true,
      "inputs": [
        {
          "internalType": "uint256",
          "name": "",
          "type": "uint256"
        }
      ],
      "name": "ordersCancelled",
      "outputs": [
        {
          "internalType": "bool",
          "name": "",
          "type": "bool"
        }
      ],
      "payable": false,
      "stateMutability": "view",
      "type": "function"
    },
    {
      "constant": true,
      "inputs": [
        {
          "internalType": "uint256",
          "name": "",
          "type": "uint256"
        }
      ],
      "name": "ordersFulfilled",
      "outputs": [
        {
          "internalType": "bool",
          "name": "",
          "type": "bool"
        }
      ],
      "payable": false,
      "stateMutability": "view",
      "type": "function"
    },
    {
      "constant": true,
      "inputs": [
        {
          "internalType": "address",
          "name": "",
          "type": "address"
        },
        {
          "internalType": "address",
          "name": "",
          "type": "address"
        }
      ],
      "name": "tokens",
      "outputs": [
        {
          "internalType": "uint256",
          "name": "",
          "type": "uint256"
        }
      ],
      "payable": false,
      "stateMutability": "view",
      "type": "function"
    },
    {
      "constant": false,
      "inputs": [],
      "name": "depositEther",
      "outputs": [],
      "payable": true,
      "stateMutability": "payable",
      "type": "function"
    },
    {
      "constant": false,
      "inputs": [
        {
          "internalType": "uint256",
          "name": "_amount",
          "type": "uint256"
        }
      ],
      "name": "withdrawEther",
      "outputs": [],
      "payable": true,
      "stateMutability": "payable",
      "type": "function"
    },
    {
      "constant": false,
      "inputs": [
        {
          "internalType": "address",
          "name": "_token",
          "type": "address"
        },
        {
          "internalType": "uint256",
          "name": "_amount",
          "type": "uint256"
        }
      ],
      "name": "depositToken",
      "outputs": [],
      "payable": false,
      "stateMutability": "nonpayable",
      "type": "function"
    },
    {
      "constant": false,
      "inputs": [
        {
          "internalType": "address",
          "name": "_token",
          "type": "address"
        },
        {
          "internalType": "uint256",
          "name": "_amount",
          "type": "uint256"
        }
      ],
      "name": "withdrawToken",
      "outputs": [],
      "payable": false,
      "stateMutability": "nonpayable",
      "type": "function"
    },
    {
      "constant": true,
      "inputs": [
        {
          "internalType": "address",
          "name": "_token",
          "type": "address"
        },
        {
          "internalType": "address",
          "name": "_user",
          "type": "address"
        }
      ],
      "name": "balanceOf",
      "outputs": [
        {
          "internalType": "uint256",
          "name": "",
          "type": "uint256"
        }
      ],
      "payable": false,
      "stateMutability": "view",
      "type": "function"
    },
    {
      "constant": false,
      "inputs": [
        {
          "internalType": "address",
          "name": "_tokenGet",
          "type": "address"
        },
        {
          "internalType": "uint256",
          "name": "_amountGet",
          "type": "uint256"
        },
        {
          "internalType": "address",
          "name": "_tokenGive",
          "type": "address"
        },
        {
          "internalType": "uint256",
          "name": "_amountGive",
          "type": "uint256"
        }
      ],
      "name": "makeOrder",
      "outputs": [],
      "payable": false,
      "stateMutability": "nonpayable",
      "type": "function"
    },
    {
      "constant": false,
      "inputs": [
        {
          "internalType": "uint256",
          "name": "_id",
          "type": "uint256"
        }
      ],
      "name": "cancelOrder",
      "outputs": [],
      "payable": false,
      "stateMutability": "nonpayable",
      "type": "function"
    },
    {
      "constant": false,
      "inputs": [
        {
          "internalType": "uint256",
          "name": "_id",
          "type": "uint256"
        }
      ],
      "name": "fillOrder",
      "outputs": [],
      "payable": false,
      "stateMutability": "nonpayable",
      "type": "function"
    }
  ],
  "bytecode": "0x608060405234801561001057600080fd5b506040516122a23803806122a28339818101604052604081101561003357600080fd5b810190808051906020019092919080519060200190929190505050816000806101000a81548173ffffffffffffffffffffffffffffffffffffffff021916908373ffffffffffffffffffffffffffffffffffffffff1602179055508060018190555050506121fc806100a66000396000f3fe6080604052600436106100e85760003560e01c80637fd6f15c1161008a578063a85c38ef11610059578063a85c38ef14610415578063b08f2dc614610512578063c72abc5014610565578063f7888aec146105b8576100e8565b80637fd6f15c1461030057806398ea5fca1461032b5780639a5c90aa146103355780639e281a98146103ba576100e8565b8063508493bc116100c6578063508493bc146101ae578063514fcac71461023357806365e17c9d1461026e57806367b830ad146102c5576100e8565b80632453ffa8146100fa578063338b5dea146101255780633bed33ce14610180575b3480156100f457600080fd5b50600080fd5b34801561010657600080fd5b5061010f61063d565b6040518082815260200191505060405180910390f35b34801561013157600080fd5b5061017e6004803603604081101561014857600080fd5b81019080803573ffffffffffffffffffffffffffffffffffffffff16906020019092919080359060200190929190505050610643565b005b6101ac6004803603602081101561019657600080fd5b81019080803590602001909291905050506109b2565b005b3480156101ba57600080fd5b5061021d600480360360408110156101d157600080fd5b81019080803573ffffffffffffffffffffffffffffffffffffffff169060200190929190803573ffffffffffffffffffffffffffffffffffffffff169060200190929190505050610cb8565b6040518082815260200191505060405180910390f35b34801561023f57600080fd5b5061026c6004803603602081101561025657600080fd5b8101908080359060200190929190505050610cdd565b005b34801561027a57600080fd5b50610283610ecf565b604051808273ffffffffffffffffffffffffffffffffffffffff1673ffffffffffffffffffffffffffffffffffffffff16815260200191505060405180910390f35b3480156102d157600080fd5b506102fe600480360360208110156102e857600080fd5b8101908080359060200190929190505050610ef4565b005b34801561030c57600080fd5b50610315611032565b6040518082815260200191505060405180910390f35b610333611038565b005b34801561034157600080fd5b506103b86004803603608081101561035857600080fd5b81019080803573ffffffffffffffffffffffffffffffffffffffff16906020019092919080359060200190929190803573ffffffffffffffffffffffffffffffffffffffff1690602001909291908035906020019092919050505061126d565b005b3480156103c657600080fd5b50610413600480360360408110156103dd57600080fd5b81019080803573ffffffffffffffffffffffffffffffffffffffff16906020019092919080359060200190929190505050611508565b005b34801561042157600080fd5b5061044e6004803603602081101561043857600080fd5b81019080803590602001909291905050506118cc565b604051808881526020018773ffffffffffffffffffffffffffffffffffffffff1673ffffffffffffffffffffffffffffffffffffffff1681526020018673ffffffffffffffffffffffffffffffffffffffff1673ffffffffffffffffffffffffffffffffffffffff1681526020018581526020018473ffffffffffffffffffffffffffffffffffffffff1673ffffffffffffffffffffffffffffffffffffffff16815260200183815260200182815260200197505050505050505060405180910390f35b34801561051e57600080fd5b5061054b6004803603602081101561053557600080fd5b810190808035906020019092919050505061196e565b604051808215151515815260200191505060405180910390f35b34801561057157600080fd5b5061059e6004803603602081101561058857600080fd5b810190808035906020019092919050505061198e565b604051808215151515815260200191505060405180910390f35b3480156105c457600080fd5b50610627600480360360408110156105db57600080fd5b81019080803573ffffffffffffffffffffffffffffffffffffffff169060200190929190803573ffffffffffffffffffffffffffffffffffffffff1690602001909291905050506119ae565b6040518082815260200191505060405180910390f35b60025481565b600073ffffffffffffffffffffffffffffffffffffffff168273ffffffffffffffffffffffffffffffffffffffff16141561067d57600080fd5b8173ffffffffffffffffffffffffffffffffffffffff166323b872dd3330846040518463ffffffff1660e01b8152600401808473ffffffffffffffffffffffffffffffffffffffff1673ffffffffffffffffffffffffffffffffffffffff1681526020018373ffffffffffffffffffffffffffffffffffffffff1673ffffffffffffffffffffffffffffffffffffffff1681526020018281526020019350505050602060405180830381600087803b15801561073857600080fd5b505af115801561074c573d6000803e3d6000fd5b505050506040513d602081101561076257600080fd5b810190808051906020019092919050505061077c57600080fd5b61080b81600360008573ffffffffffffffffffffffffffffffffffffffff1673ffffffffffffffffffffffffffffffffffffffff16815260200190815260200160002060003373ffffffffffffffffffffffffffffffffffffffff1673ffffffffffffffffffffffffffffffffffffffff16815260200190815260200160002054611a3590919063ffffffff16565b600360008473ffffffffffffffffffffffffffffffffffffffff1673ffffffffffffffffffffffffffffffffffffffff16815260200190815260200160002060003373ffffffffffffffffffffffffffffffffffffffff1673ffffffffffffffffffffffffffffffffffffffff168152602001908152602001600020819055507fdcbc1c05240f31ff3ad067ef1ee35ce4997762752e3a095284754544f4c709d7823383600360008773ffffffffffffffffffffffffffffffffffffffff1673ffffffffffffffffffffffffffffffffffffffff16815260200190815260200160002060003373ffffffffffffffffffffffffffffffffffffffff1673ffffffffffffffffffffffffffffffffffffffff16815260200190815260200160002054604051808573ffffffffffffffffffffffffffffffffffffffff1673ffffffffffffffffffffffffffffffffffffffff1681526020018473ffffffffffffffffffffffffffffffffffffffff1673ffffffffffffffffffffffffffffffffffffffff16815260200183815260200182815260200194505050505060405180910390a15050565b80600360008073ffffffffffffffffffffffffffffffffffffffff1673ffffffffffffffffffffffffffffffffffffffff16815260200190815260200160002060003373ffffffffffffffffffffffffffffffffffffffff1673ffffffffffffffffffffffffffffffffffffffff168152602001908152602001600020541015610a3b57600080fd5b610aca81600360008073ffffffffffffffffffffffffffffffffffffffff1673ffffffffffffffffffffffffffffffffffffffff16815260200190815260200160002060003373ffffffffffffffffffffffffffffffffffffffff1673ffffffffffffffffffffffffffffffffffffffff16815260200190815260200160002054611a5490919063ffffffff16565b600360008073ffffffffffffffffffffffffffffffffffffffff1673ffffffffffffffffffffffffffffffffffffffff16815260200190815260200160002060003373ffffffffffffffffffffffffffffffffffffffff1673ffffffffffffffffffffffffffffffffffffffff168152602001908152602001600020819055503373ffffffffffffffffffffffffffffffffffffffff166108fc829081150290604051600060405180830381858888f19350505050158015610b90573d6000803e3d6000fd5b507ff341246adaac6f497bc2a656f546ab9e182111d630394f0c57c710a59a2cb56760003383600360008073ffffffffffffffffffffffffffffffffffffffff1673ffffffffffffffffffffffffffffffffffffffff16815260200190815260200160002060003373ffffffffffffffffffffffffffffffffffffffff1673ffffffffffffffffffffffffffffffffffffffff16815260200190815260200160002054604051808573ffffffffffffffffffffffffffffffffffffffff1673ffffffffffffffffffffffffffffffffffffffff1681526020018473ffffffffffffffffffffffffffffffffffffffff1673ffffffffffffffffffffffffffffffffffffffff16815260200183815260200182815260200194505050505060405180910390a150565b6003602052816000526040600020602052806000526040600020600091509150505481565b60006004600083815260200190815260200160002090503373ffffffffffffffffffffffffffffffffffffffff168160010160009054906101000a900473ffffffffffffffffffffffffffffffffffffffff1673ffffffffffffffffffffffffffffffffffffffff1614610d5057600080fd5b81816000015414610d6057600080fd5b60016005600084815260200190815260200160002060006101000a81548160ff0219169083151502179055507f77de1da0be5f2d3b110d05c6694e5c4ff2d9da7cd23d84353ecf78c7b5acec618160000154338360020160009054906101000a900473ffffffffffffffffffffffffffffffffffffffff1684600301548560040160009054906101000a900473ffffffffffffffffffffffffffffffffffffffff16866005015442604051808881526020018773ffffffffffffffffffffffffffffffffffffffff1673ffffffffffffffffffffffffffffffffffffffff1681526020018673ffffffffffffffffffffffffffffffffffffffff1673ffffffffffffffffffffffffffffffffffffffff1681526020018581526020018473ffffffffffffffffffffffffffffffffffffffff1673ffffffffffffffffffffffffffffffffffffffff16815260200183815260200182815260200197505050505050505060405180910390a15050565b6000809054906101000a900473ffffffffffffffffffffffffffffffffffffffff1681565b600081118015610f0657506002548111155b610f0f57600080fd5b6006600082815260200190815260200160002060009054906101000a900460ff1615610f3a57600080fd5b6005600082815260200190815260200160002060009054906101000a900460ff1615610f6557600080fd5b600060046000838152602001908152602001600020905061100281600001548260010160009054906101000a900473ffffffffffffffffffffffffffffffffffffffff168360020160009054906101000a900473ffffffffffffffffffffffffffffffffffffffff1684600301548560040160009054906101000a900473ffffffffffffffffffffffffffffffffffffffff168660050154611a74565b60016006600084815260200190815260200160002060006101000a81548160ff0219169083151502179055505050565b60015481565b6110c734600360008073ffffffffffffffffffffffffffffffffffffffff1673ffffffffffffffffffffffffffffffffffffffff16815260200190815260200160002060003373ffffffffffffffffffffffffffffffffffffffff1673ffffffffffffffffffffffffffffffffffffffff16815260200190815260200160002054611a3590919063ffffffff16565b600360008073ffffffffffffffffffffffffffffffffffffffff1673ffffffffffffffffffffffffffffffffffffffff16815260200190815260200160002060003373ffffffffffffffffffffffffffffffffffffffff1673ffffffffffffffffffffffffffffffffffffffff168152602001908152602001600020819055507fdcbc1c05240f31ff3ad067ef1ee35ce4997762752e3a095284754544f4c709d760003334600360008073ffffffffffffffffffffffffffffffffffffffff1673ffffffffffffffffffffffffffffffffffffffff16815260200190815260200160002060003373ffffffffffffffffffffffffffffffffffffffff1673ffffffffffffffffffffffffffffffffffffffff16815260200190815260200160002054604051808573ffffffffffffffffffffffffffffffffffffffff1673ffffffffffffffffffffffffffffffffffffffff1681526020018473ffffffffffffffffffffffffffffffffffffffff1673ffffffffffffffffffffffffffffffffffffffff16815260200183815260200182815260200194505050505060405180910390a1565b6112836001600254611a3590919063ffffffff16565b6002819055506040518060e0016040528060025481526020013373ffffffffffffffffffffffffffffffffffffffff1681526020018573ffffffffffffffffffffffffffffffffffffffff1681526020018481526020018373ffffffffffffffffffffffffffffffffffffffff168152602001828152602001428152506004600060025481526020019081526020016000206000820151816000015560208201518160010160006101000a81548173ffffffffffffffffffffffffffffffffffffffff021916908373ffffffffffffffffffffffffffffffffffffffff16021790555060408201518160020160006101000a81548173ffffffffffffffffffffffffffffffffffffffff021916908373ffffffffffffffffffffffffffffffffffffffff1602179055506060820151816003015560808201518160040160006101000a81548173ffffffffffffffffffffffffffffffffffffffff021916908373ffffffffffffffffffffffffffffffffffffffff16021790555060a0820151816005015560c082015181600601559050507f9d33853d43e3607b4cc01fdc78338ff2dca6fef7db9232dae6d3eb55fbc3b109600254338686868642604051808881526020018773ffffffffffffffffffffffffffffffffffffffff1673ffffffffffffffffffffffffffffffffffffffff1681526020018673ffffffffffffffffffffffffffffffffffffffff1673ffffffffffffffffffffffffffffffffffffffff1681526020018581526020018473ffffffffffffffffffffffffffffffffffffffff1673ffffffffffffffffffffffffffffffffffffffff16815260200183815260200182815260200197505050505050505060405180910390a150505050565b600073ffffffffffffffffffffffffffffffffffffffff168273ffffffffffffffffffffffffffffffffffffffff16141561154257600080fd5b80600360008473ffffffffffffffffffffffffffffffffffffffff1673ffffffffffffffffffffffffffffffffffffffff16815260200190815260200160002060003373ffffffffffffffffffffffffffffffffffffffff1673ffffffffffffffffffffffffffffffffffffffff1681526020019081526020016000205410156115cb57600080fd5b8173ffffffffffffffffffffffffffffffffffffffff1663a9059cbb33836040518363ffffffff1660e01b8152600401808373ffffffffffffffffffffffffffffffffffffffff1673ffffffffffffffffffffffffffffffffffffffff16815260200182815260200192505050602060405180830381600087803b15801561165257600080fd5b505af1158015611666573d6000803e3d6000fd5b505050506040513d602081101561167c57600080fd5b810190808051906020019092919050505061169657600080fd5b61172581600360008573ffffffffffffffffffffffffffffffffffffffff1673ffffffffffffffffffffffffffffffffffffffff16815260200190815260200160002060003373ffffffffffffffffffffffffffffffffffffffff1673ffffffffffffffffffffffffffffffffffffffff16815260200190815260200160002054611a5490919063ffffffff16565b600360008473ffffffffffffffffffffffffffffffffffffffff1673ffffffffffffffffffffffffffffffffffffffff16815260200190815260200160002060003373ffffffffffffffffffffffffffffffffffffffff1673ffffffffffffffffffffffffffffffffffffffff168152602001908152602001600020819055507ff341246adaac6f497bc2a656f546ab9e182111d630394f0c57c710a59a2cb567823383600360008773ffffffffffffffffffffffffffffffffffffffff1673ffffffffffffffffffffffffffffffffffffffff16815260200190815260200160002060003373ffffffffffffffffffffffffffffffffffffffff1673ffffffffffffffffffffffffffffffffffffffff16815260200190815260200160002054604051808573ffffffffffffffffffffffffffffffffffffffff1673ffffffffffffffffffffffffffffffffffffffff1681526020018473ffffffffffffffffffffffffffffffffffffffff1673ffffffffffffffffffffffffffffffffffffffff16815260200183815260200182815260200194505050505060405180910390a15050565b60046020528060005260406000206000915090508060000154908060010160009054906101000a900473ffffffffffffffffffffffffffffffffffffffff16908060020160009054906101000a900473ffffffffffffffffffffffffffffffffffffffff16908060030154908060040160009054906101000a900473ffffffffffffffffffffffffffffffffffffffff16908060050154908060060154905087565b60066020528060005260406000206000915054906101000a900460ff1681565b60056020528060005260406000206000915054906101000a900460ff1681565b6000600360008473ffffffffffffffffffffffffffffffffffffffff1673ffffffffffffffffffffffffffffffffffffffff16815260200190815260200160002060008373ffffffffffffffffffffffffffffffffffffffff1673ffffffffffffffffffffffffffffffffffffffff16815260200190815260200160002054905092915050565b600080828401905083811015611a4a57600080fd5b8091505092915050565b600082821115611a6357600080fd5b600082840390508091505092915050565b6000611a9e6064611a906001548761216790919063ffffffff16565b6121a190919063ffffffff16565b9050611b41611ab68286611a3590919063ffffffff16565b600360008873ffffffffffffffffffffffffffffffffffffffff1673ffffffffffffffffffffffffffffffffffffffff16815260200190815260200160002060003373ffffffffffffffffffffffffffffffffffffffff1673ffffffffffffffffffffffffffffffffffffffff16815260200190815260200160002054611a5490919063ffffffff16565b600360008773ffffffffffffffffffffffffffffffffffffffff1673ffffffffffffffffffffffffffffffffffffffff16815260200190815260200160002060003373ffffffffffffffffffffffffffffffffffffffff1673ffffffffffffffffffffffffffffffffffffffff16815260200190815260200160002081905550611c5084600360008873ffffffffffffffffffffffffffffffffffffffff1673ffffffffffffffffffffffffffffffffffffffff16815260200190815260200160002060008973ffffffffffffffffffffffffffffffffffffffff1673ffffffffffffffffffffffffffffffffffffffff16815260200190815260200160002054611a3590919063ffffffff16565b600360008773ffffffffffffffffffffffffffffffffffffffff1673ffffffffffffffffffffffffffffffffffffffff16815260200190815260200160002060008873ffffffffffffffffffffffffffffffffffffffff1673ffffffffffffffffffffffffffffffffffffffff16815260200190815260200160002081905550611d8081600360008873ffffffffffffffffffffffffffffffffffffffff1673ffffffffffffffffffffffffffffffffffffffff16815260200190815260200160002060008060009054906101000a900473ffffffffffffffffffffffffffffffffffffffff1673ffffffffffffffffffffffffffffffffffffffff1673ffffffffffffffffffffffffffffffffffffffff16815260200190815260200160002054611a3590919063ffffffff16565b600360008773ffffffffffffffffffffffffffffffffffffffff1673ffffffffffffffffffffffffffffffffffffffff16815260200190815260200160002060008060009054906101000a900473ffffffffffffffffffffffffffffffffffffffff1673ffffffffffffffffffffffffffffffffffffffff1673ffffffffffffffffffffffffffffffffffffffff16815260200190815260200160002081905550611eb082600360008673ffffffffffffffffffffffffffffffffffffffff1673ffffffffffffffffffffffffffffffffffffffff16815260200190815260200160002060008973ffffffffffffffffffffffffffffffffffffffff1673ffffffffffffffffffffffffffffffffffffffff16815260200190815260200160002054611a5490919063ffffffff16565b600360008573ffffffffffffffffffffffffffffffffffffffff1673ffffffffffffffffffffffffffffffffffffffff16815260200190815260200160002060008873ffffffffffffffffffffffffffffffffffffffff1673ffffffffffffffffffffffffffffffffffffffff16815260200190815260200160002081905550611fbf82600360008673ffffffffffffffffffffffffffffffffffffffff1673ffffffffffffffffffffffffffffffffffffffff16815260200190815260200160002060003373ffffffffffffffffffffffffffffffffffffffff1673ffffffffffffffffffffffffffffffffffffffff16815260200190815260200160002054611a3590919063ffffffff16565b600360008573ffffffffffffffffffffffffffffffffffffffff1673ffffffffffffffffffffffffffffffffffffffff16815260200190815260200160002060003373ffffffffffffffffffffffffffffffffffffffff1673ffffffffffffffffffffffffffffffffffffffff168152602001908152602001600020819055507f0dddf4182dc0fc1a311cb75f049c97403c6b8a99cf6b2229a36e7c526acb3f818787878787873342604051808981526020018873ffffffffffffffffffffffffffffffffffffffff1673ffffffffffffffffffffffffffffffffffffffff1681526020018773ffffffffffffffffffffffffffffffffffffffff1673ffffffffffffffffffffffffffffffffffffffff1681526020018681526020018573ffffffffffffffffffffffffffffffffffffffff1673ffffffffffffffffffffffffffffffffffffffff1681526020018481526020018373ffffffffffffffffffffffffffffffffffffffff1673ffffffffffffffffffffffffffffffffffffffff1681526020018281526020019850505050505050505060405180910390a150505050505050565b60008083141561217a576000905061219b565b600082840290508284828161218b57fe5b041461219657600080fd5b809150505b92915050565b60008082116121af57600080fd5b60008284816121ba57fe5b049050809150509291505056fea265627a7a7231582068005439aecf093b2444f70cf7a2e18a921fdb25570878bdbdfbed5058e054c764736f6c63430005100032",
  "source": "// SPDX-License-Identifier: MIT\r\npragma solidity >=0.4.21 <0.9.0;\r\n\r\n// Deposit and Withdrawal funds\r\n// Manage Orders - Make Or Cancel\r\n// Handle Trades - Charge Gas Fees/Fees\r\n    // TODO:\r\n    //? [1] Set the fee/fee account\r\n    //? [3] Deposit Ether\r\n    //? [4] Withdraw Ether\r\n    //? [2] Deposit tokens\r\n    //? [5] Withdraw tokens\r\n    //? [6] Check Balances \r\n    //? [7] Make order\r\n    //? [8] Cancel order\r\n    //? [9-10] Fill order & Charge Fees\r\n\r\n\r\nimport \"./Token.sol\";\r\nimport \"openzeppelin-solidity/contracts/math/SafeMath.sol\";\r\n\r\ncontract Exchange {\r\n    // So add() is a possible method and won't result in an error\r\n        using SafeMath for uint;\r\n    //? [x] Set the fee/fee account\r\n    // Variables\r\n    address public feeAccount; // the account that receives exchange fees\r\n    uint256 public feePercent; // the fee percentage, lower on most exchanges, but we'll use 10%\r\n    address constant ETHER = address(0); // ETHER address will never change, Ether has no address so we set as dummy address for tokens;\r\n        // store Ether in tokens mapping with blank address\r\n    uint256 public orderCount;\r\n    //mapping which is internal tracking mechanism to determine which token deposited, amoutn deposited, and who they belong to\r\n        // nested mapping like allowance in Token.sol -> 1st key address is all tokens deposited(types and more),\r\n            // 2nd key is address of user who deposited tokens themselves, show their balances of the specific token\r\n    mapping(address => mapping(address => uint256)) public tokens;\r\n    // Need a way to store the orders [X] -> accessed by the id and returns _Order struct\r\n    mapping(uint256 => _Order) public orders;\r\n    // Cancelled Orders mapping to compare against the above orders mapping by id and returns true if same id in both; cancels order if same \r\n        // id in both mappings.\r\n    mapping(uint256 => bool) public ordersCancelled;\r\n    // Similar to the above mapping except it tells you which orders are fulfilled not cancelled\r\n    mapping(uint256 => bool) public ordersFulfilled;\r\n\r\n    // Deposit event emitted, defining params here\r\n    event Deposit(address token, address user, uint256 amount, uint256 balance);\r\n    // Withdraw event emitted, defining params here\r\n    event Withdraw(address token, address user, uint256 amount, uint256 balance);\r\n    // Similar to struct _Order but is the event and will be used outside of smart contract - good naming convention considering it follows\r\n        // the other event naming conventions - emit when making order\r\n    event Order(uint256 id, address user, address tokenGet, uint256 amountGet, address tokenGive, uint256 amountGive, uint256 timestamp);\r\n    // The Same as Order event except for cancelling an order\r\n    event Cancel(uint256 id, address user, address tokenGet, uint256 amountGet, address tokenGive, uint256 amountGive, uint256 timestamp);\r\n    // trade event, similar to cancel and order, but fills trade\r\n    event Trade(uint256 id, address user, address tokenGet, uint256 amountGet, address tokenGive, uint256 amountGive, address userFill, uint256 timestamp);\r\n        // Need a way to model the orders [X]\r\n        // Can create your own data types via a struct\r\n        // Example seen here: https://docs.soliditylang.org/en/v0.8.10/structure-of-a-contract.html \r\n    struct _Order { // acts as a constructors setter like in c# -> sets properties/attributes of an order\r\n        uint256 id;\r\n        // person who made the order\r\n        address user;\r\n        // address of specific token user wants to purchase\r\n        address tokenGet;\r\n        // amount of token user wants to purchase\r\n        uint256 amountGet;\r\n        // token they will trade in to get the other token\r\n        address tokenGive;\r\n        // amount of tokens they will trade in to get another token\r\n        uint256 amountGive;\r\n        // the time the order will be placed\r\n        uint256 timestamp;\r\n    }\r\n\r\n    // create feeAccount in () of constructor -> see Exchange.test.js\r\n    constructor(address _feeAccount, uint256 _feePercent) public {\r\n        // Similar to C# constructors\r\n        feeAccount = _feeAccount;\r\n        feePercent = _feePercent;\r\n    }\r\n\r\n    // Fallback Function: reverts if Ether is sent to this smart contract by mistake\r\n        // fallback function only called if if a function you call within a smart contract doesn't exist ->\r\n            // see fallback test for more understanding\r\n    function() external{\r\n        revert();\r\n    }\r\n\r\n    // Create ability to deposit Ether just not via the depositToken() method\r\n        // Similar to depositToken() except depositToken uses tokens while ether is not a token\r\n            // reduce amount of storage used by blockchain by using internal mapping storage of tokens; \r\n                // ether has no address but we will create functionality to where an empty address is ether in the tokens variable\r\n    // Need payable function name modifier to accept ether in with metadata.\r\n    function depositEther() payable public {\r\n        // I think statement will be change later as he explains how to add ether as amount; can't be passed in as param as seen below\r\n            // can pass in ether as metadata which using the value property in tests not the from property. \r\n                // Sets nested mapping of token for ether of the msg.sender equal to the specific token for the ETHER address with \r\n                    // ether being added. Will include amount from depositToken() method \r\n        tokens[ETHER][msg.sender] = tokens[ETHER][msg.sender].add(msg.value);\r\n        // Also, emit deposit event -> change token param to ETHER, amount param to msg.value, and balance to the ETHER balance of tokens mapping\r\n        emit Deposit(ETHER, msg.sender, msg.value, tokens[ETHER][msg.sender]);\r\n\r\n    }\r\n\r\n    // Withdraw ether functionality\r\n        // Do Opposite of what we did when depositing ether\r\n    function withdrawEther(uint256 _amount) payable public {\r\n        // Can't ask to withdraw more than ether than a specific user address has in tokens mapping ->\r\n            // can't ask to withdraw 100 ether and only have 1 in tokens mapping -> test this as failure case\r\n                // this should be rejected with error if user tries to withdraw more than they have \r\n        require(tokens[ETHER][msg.sender] >= _amount);\r\n        // Test this in new describe('withdrawing ether') -> describe('success') -> it(\"withdraws Ether funds\");\r\n        tokens[ETHER][msg.sender] = tokens[ETHER][msg.sender].sub(_amount);\r\n        //Return ether back to original user -> is this from or not from the Token.sol smart contract?, I would \r\n            // assume not since it doesn't follow the 2 parameters that it should have if it was from Token.sol smart contract\r\n        //! View this link to see address.transfer() in use: \r\n            //! https://medium.com/daox/three-methods-to-transfer-funds-in-ethereum-by-means-of-solidity-5719944ed6e9 \r\n        msg.sender.transfer(_amount);\r\n        emit Withdraw(ETHER, msg.sender, _amount, tokens[ETHER][msg.sender]);\r\n    }\r\n\r\n    // Can deposit token import from above and any token as long as it follows\r\n        // ERC-20 format\r\n    function depositToken(address _token, uint256 _amount) public{\r\n        //Don't allow Ether Deposits\r\n        require(_token != ETHER);\r\n        // Which Token? -> do so by adding address _token in params, deposits token on ethereum\r\n        // How much? -> do so by defining _amount in params\r\n        // Send tokens to this contract\r\n            // Token allows you to access the functions and other things from described token\r\n            // transferFrom() should be in all tokens so can be called here\r\n            // _ from is the msg.sender, _to is the this which is the smart contract currently or Exchange;\r\n                // it is cast to address, and _ value is the _amount param seen in params of this method\r\n            // transferFrom() allows exchange to move tokens to itself, must approve tokens\r\n                // before calling this method -> write test for this below statement\r\n        require(Token(_token).transferFrom(msg.sender, address(this), _amount));\r\n            // this transferFrom() if successful will return true \r\n                // so using the require() is a really good way for it to check if this succeeds\r\n                    // will only continue in method if true is returned\r\n        // internal mapping mechanism of tracking tokens and user addresses and amounts used below\r\n            // the value of the mapping by default is 0, user1 transfers tokens to the exchange and by doing so \r\n                // gets the internal mapping mechanism to be equal to 10 tokens, test to see?\r\n        // Manage deposit - update balance [X]\r\n        tokens[_token][msg.sender] = tokens[_token][msg.sender].add(_amount);\r\n\r\n\r\n        //Emit event to listeners/buyers? -> emit Deposit event, create and define params and their values \r\n            // above constructor\r\n        // token param is the _token address, the user param is the msg.sender or user1 address from test\r\n            // the amount is just the _ amount used as param in here, and the balance of the specified token \r\n                // for the specified user is the nested mapping of tokens\r\n                // token, user, amount, balance\r\n        emit Deposit(_token, msg.sender, _amount, tokens[_token][msg.sender]);\r\n    }\r\n    function withdrawToken(address _token, uint256 _amount) public{\r\n        // Don't allow Ether Withdraws via this function -> use withdraw ether function if ether address\r\n            // The order of these require() method checks allows for ether address checks in failure tests\r\n                // to no fail on the insufficeint amount but on the incorrect address\r\n        require(_token != ETHER);\r\n        // Can't withdraw a token amount more than what is in the specific tokens mapping for the specific token for the specific user address \r\n        require(tokens[_token][msg.sender] >= _amount);\r\n        // Explanation of 2 lines below:\r\n            // Interesting concept, were returning the tokens back to the specific user address(or msg.sender/user1 in testing) \r\n                // because theyre withdrawing tokens. I think that this gives back tokens to the specific user address; \r\n                    //while the exchange smart contract has its tokens mapping(internal storing mechanism for exchange) \r\n                        // loses the tokens from the specific user address on the exchange.\r\n        // This transfer method should return true -> and returns the tokens to the user address\r\n        require(Token(_token).transfer(msg.sender, _amount));\r\n\r\n        // subtract the token amount from the tokens mappping sotring the specific tokens that the specific user address has\r\n        tokens[_token][msg.sender] = tokens[_token][msg.sender].sub(_amount);\r\n\r\n        //emit withdraw event similarly to withdrawEther() method\r\n        emit Withdraw(_token, msg.sender, _amount, tokens[_token][msg.sender]);\r\n    }\r\n\r\n    // Check Balance Function -> reader function essentially due to view keyword?\r\n    function balanceOf(address _token, address _user) public view returns(uint256){\r\n        // Just returns tokens mapping balance of specific token for specific user address\r\n        // Create 2 dummy tests for checking balance of ether and our token in tokens mapping\r\n        return tokens[_token][_user];\r\n    }\r\n\r\n    // add the order/retrieve order from storage [X]\r\n    function makeOrder(address _tokenGet, uint256 _amountGet, address _tokenGive, uint256 _amountGive) public{\r\n        // instantiates new order/struct -> call _Order() struct and pass in neccessary params into the _Order() functionality\r\n            // now is a solidity keyword that acts as the Date.now() from C#, returns Unix timestamp but can convert to human readable via\r\n                //  https://www.epochconverter.com/  \r\n        // dynamic id by using orderCount and adding 1 to it -> can act as a dynamic id and can get specific mapping of order using\r\n            // this orderCount number and replacing id attribute with the orderCount uint\r\n        orderCount = orderCount.add(1);\r\n        orders[orderCount] = _Order(orderCount, msg.sender, _tokenGet, _amountGet, _tokenGive, _amountGive, now);\r\n        emit Order(orderCount, msg.sender, _tokenGet, _amountGet, _tokenGive, _amountGive, now);\r\n    } \r\n\r\n    // Cancels Order and stops a user from fulfilling an order that the other user just cancelled\r\n        // Cannot just take order out of orders mapping, any order made will always stay in orders mapping\r\n            // Create a cancelled orders mapping and will eventually compare against order mapping and what's left in orders mapping \r\n                // will be orders that can be fulfilled. \r\n    function cancelOrder(uint256 _id) public {\r\n        // 2 require() statements\r\n            // Must only be able to cancel your own orders\r\n                //! sets type of _order to the struct type of _Order -> pulls orders[_id] from storage of blockchain and sets equal to \r\n                    //! _order variable\r\n            _Order storage _order = orders[_id];\r\n            // Uses statement above and checks if msg.sender(user1 in tests) is equal to the user property from the _order\r\n            // Not necessary to cast the _order.user to address but it probably just helps with typescript type in case of funky numbered address\r\n            require(address(_order.user) == msg.sender);\r\n            // Can only cancel orders that exist not cancel orders that don't exist.\r\n                // Will not have an id property if the _id doesn't exist in the first place.\r\n            require(_order.id == _id);\r\n\r\n        // When set to true, order is cancelled and can't be fulfilled\r\n        ordersCancelled[_id] = true;\r\n        // emit cancel event -> not exactly sure how _order has access to these values? -> assigned above\r\n        emit Cancel(_order.id, msg.sender, _order.tokenGet, _order.amountGet, _order.tokenGive, _order.amountGive, now);\r\n    }\r\n\r\n    function fillOrder(uint256 _id) public {\r\n        //another require check making sure _id is greater than 0 and is less than or equal to orderCount(orderCount is the max id number possible)\r\n        require(_id > 0 && _id <= orderCount);\r\n        // Make sure the order hasn't been fulfilled nor cancelled already through require() checks\r\n        require(!ordersFulfilled[_id]);\r\n        require(!ordersCancelled[_id]);\r\n        //? Steps:\r\n            // Fetch The Order -> same logic from cancelOrder() method\r\n            _Order storage _order = orders[_id];\r\n            _trade(_order.id, _order.user, _order.tokenGet, _order.amountGet, _order.tokenGive, _order.amountGive);\r\n            // Mark order as filled -> create another ordersFulfilled mapping and set to true based on _id param passed in\r\n            ordersFulfilled[_id] = true;\r\n    }\r\n\r\n    //internal keyword makes it so people can't call this function outside this solidity smart contract; only used and called in here\r\n        // not in tests\r\n    function _trade(uint256 _orderId, address _user, address _tokenGet, uint256 _amountGet, address _tokenGive, uint256 _amountGive) internal {\r\n            // Charge Fees -> Fee paid by the user that fills the order, msg.sender here; Fee deducted from _amountGet.\r\n            // Our current feePercent is 10%, so if 100 tokens sent, fee is 10 tokens.\r\n            uint256 _feeAmount = _amountGet.mul(feePercent).div(100);\r\n            \r\n            // Execute Trade -> msg.sender is one who filled order; _user is one who made the order.\r\n                // subtract amount of tokens from the one who filled the order and add that token amount to the one who made the order\r\n            tokens[_tokenGet][msg.sender] = tokens[_tokenGet][msg.sender].sub(_amountGet.add(_feeAmount));\r\n            tokens[_tokenGet][_user] = tokens[_tokenGet][_user].add(_amountGet);\r\n            // add feeAmount to feeAccount in constructor -> Part of charging fees\r\n            tokens[_tokenGet][feeAccount] = tokens[_tokenGet][feeAccount].add(_feeAmount);\r\n            // subtract amount of tokens from one who made the order and add that amount to the one who filled the order.\r\n            tokens[_tokenGive][_user] = tokens[_tokenGive][_user].sub(_amountGive);\r\n            tokens[_tokenGive][msg.sender] = tokens[_tokenGive][msg.sender].add(_amountGive);\r\n\r\n            // Emit Trade event -> similar to order and cancel event with only 1 new parameter being \r\n                // the address of the user who filled the order\r\n            emit Trade(_orderId, _user, _tokenGet, _amountGet, _tokenGive, _amountGive, msg.sender, now);\r\n    }\r\n}",
  "sourcePath": "D:/Dev/blockchain-developer-bootcamp-1-create-project/bootcamp-1/src/contracts/Exchange.sol",
  "compiler": {
    "name": "solc",
    "version": "0.5.16+commit.9c3226ce.Emscripten.clang"
  },
  "schemaVersion": "3.2.5",
  "updatedAt": "2022-07-18T19:49:19.432Z",
  "networkType": "ethereum",
  "devdoc": {
    "methods": {}
  },
  "userdoc": {
    "methods": {}
  }
}